{
  "contractName": "User",
  "abi": [
    {
      "constant": false,
      "inputs": [
        {
          "name": "name",
          "type": "string"
        },
        {
          "name": "username",
          "type": "string"
        },
        {
          "name": "phoneNumber",
          "type": "string"
        },
        {
          "name": "vehicle",
          "type": "string"
        },
        {
          "name": "vehicleNo",
          "type": "string"
        },
        {
          "name": "category",
          "type": "string"
        },
        {
          "name": "password",
          "type": "string"
        },
        {
          "name": "key",
          "type": "string"
        }
      ],
      "name": "set",
      "outputs": [],
      "payable": false,
      "type": "function"
    },
    {
      "constant": false,
      "inputs": [
        {
          "name": "username",
          "type": "string"
        }
      ],
      "name": "get",
      "outputs": [
        {
          "name": "",
          "type": "string"
        },
        {
          "name": "",
          "type": "string"
        },
        {
          "name": "",
          "type": "string"
        },
        {
          "name": "",
          "type": "string"
        },
        {
          "name": "",
          "type": "string"
        },
        {
          "name": "",
          "type": "string"
        },
        {
          "name": "",
          "type": "string"
        }
      ],
      "payable": false,
      "type": "function"
    },
    {
      "constant": false,
      "inputs": [
        {
          "name": "rider",
          "type": "string"
        }
      ],
      "name": "getFinalBid",
      "outputs": [
        {
          "name": "",
          "type": "uint256"
        }
      ],
      "payable": false,
      "type": "function"
    },
    {
      "constant": false,
      "inputs": [
        {
          "name": "driver",
          "type": "string"
        },
        {
          "name": "rider",
          "type": "string"
        }
      ],
      "name": "setFinalBid",
      "outputs": [],
      "payable": false,
      "type": "function"
    }
  ],
  "bytecode": "0x60606040526114c4806100126000396000f360606040526000357c0100000000000000000000000000000000000000000000000000000000900480631b67acc01461005d578063693ec85e146102a9578063ae8ac48f146105aa578063c82dec551461061957610058565b610002565b34610002576102a76004808035906020019082018035906020019191908080601f016020809104026020016040519081016040528093929190818152602001838380828437820191505050505050909091908035906020019082018035906020019191908080601f016020809104026020016040519081016040528093929190818152602001838380828437820191505050505050909091908035906020019082018035906020019191908080601f016020809104026020016040519081016040528093929190818152602001838380828437820191505050505050909091908035906020019082018035906020019191908080601f016020809104026020016040519081016040528093929190818152602001838380828437820191505050505050909091908035906020019082018035906020019191908080601f016020809104026020016040519081016040528093929190818152602001838380828437820191505050505050909091908035906020019082018035906020019191908080601f016020809104026020016040519081016040528093929190818152602001838380828437820191505050505050909091908035906020019082018035906020019191908080601f016020809104026020016040519081016040528093929190818152602001838380828437820191505050505050909091908035906020019082018035906020019191908080601f0160208091040260200160405190810160405280939291908181526020018383808284378201915050505050509090919050506106bb565b005b34610002576103026004808035906020019082018035906020019191908080601f016020809104026020016040519081016040528093929190818152602001838380828437820191505050505050909091905050610c26565b604051808060200180602001806020018060200180602001806020018060200188810388528f8181518152602001915080519060200190808383829060006004602084601f0104600302600f01f150905090810190601f16801561037a5780820380516001836020036101000a031916815260200191505b5088810387528e8181518152602001915080519060200190808383829060006004602084601f0104600302600f01f150905090810190601f1680156103d35780820380516001836020036101000a031916815260200191505b5088810386528d8181518152602001915080519060200190808383829060006004602084601f0104600302600f01f150905090810190601f16801561042c5780820380516001836020036101000a031916815260200191505b5088810385528c8181518152602001915080519060200190808383829060006004602084601f0104600302600f01f150905090810190601f1680156104855780820380516001836020036101000a031916815260200191505b5088810384528b8181518152602001915080519060200190808383829060006004602084601f0104600302600f01f150905090810190601f1680156104de5780820380516001836020036101000a031916815260200191505b5088810383528a8181518152602001915080519060200190808383829060006004602084601f0104600302600f01f150905090810190601f1680156105375780820380516001836020036101000a031916815260200191505b508881038252898181518152602001915080519060200190808383829060006004602084601f0104600302600f01f150905090810190601f1680156105905780820380516001836020036101000a031916815260200191505b509e50505050505050505050505050505060405180910390f35b34610002576106036004808035906020019082018035906020019191908080601f01602080910402602001604051908101604052809392919081815260200183838082843782019150505050505090909190505061129a565b6040518082815260200191505060405180910390f35b34610002576106b96004808035906020019082018035906020019191908080601f016020809104026020016040519081016040528093929190818152602001838380828437820191505050505050909091908035906020019082018035906020019191908080601f0160208091040260200160405190810160405280939291908181526020018383808284378201915050505050509090919050506112ed565b005b60e06040519081016040528082815260200183815260200187815260200186815260200185815260200189815260200184815260200150600060005088604051808280519060200190808383829060006004602084601f0104600302600f01f15090500191505090815260200160405180910390206000506000820151816000016000509080519060200190828054600181600116156101000203166002900490600052602060002090601f016020900481019282601f1061078857805160ff19168380011785556107b9565b828001600101855582156107b9579182015b828111156107b857825182600050559160200191906001019061079a565b5b5090506107e491906107c6565b808211156107e057600081815060009055506001016107c6565b5090565b50506020820151816001016000509080519060200190828054600181600116156101000203166002900490600052602060002090601f016020900481019282601f1061083b57805160ff191683800117855561086c565b8280016001018555821561086c579182015b8281111561086b57825182600050559160200191906001019061084d565b5b5090506108979190610879565b808211156108935760008181506000905550600101610879565b5090565b50506040820151816002016000509080519060200190828054600181600116156101000203166002900490600052602060002090601f016020900481019282601f106108ee57805160ff191683800117855561091f565b8280016001018555821561091f579182015b8281111561091e578251826000505591602001919060010190610900565b5b50905061094a919061092c565b80821115610946576000818150600090555060010161092c565b5090565b50506060820151816003016000509080519060200190828054600181600116156101000203166002900490600052602060002090601f016020900481019282601f106109a157805160ff19168380011785556109d2565b828001600101855582156109d2579182015b828111156109d15782518260005055916020019190600101906109b3565b5b5090506109fd91906109df565b808211156109f957600081815060009055506001016109df565b5090565b50506080820151816004016000509080519060200190828054600181600116156101000203166002900490600052602060002090601f016020900481019282601f10610a5457805160ff1916838001178555610a85565b82800160010185558215610a85579182015b82811115610a84578251826000505591602001919060010190610a66565b5b509050610ab09190610a92565b80821115610aac5760008181506000905550600101610a92565b5090565b505060a0820151816005016000509080519060200190828054600181600116156101000203166002900490600052602060002090601f016020900481019282601f10610b0757805160ff1916838001178555610b38565b82800160010185558215610b38579182015b82811115610b37578251826000505591602001919060010190610b19565b5b509050610b639190610b45565b80821115610b5f5760008181506000905550600101610b45565b5090565b505060c0820151816006016000509080519060200190828054600181600116156101000203166002900490600052602060002090601f016020900481019282601f10610bba57805160ff1916838001178555610beb565b82800160010185558215610beb579182015b82811115610bea578251826000505591602001919060010190610bcc565b5b509050610c169190610bf8565b80821115610c125760008181506000905550600101610bf8565b5090565b50509050505b5050505050505050565b602060405190810160405280600081526020015060206040519081016040528060008152602001506020604051908101604052806000815260200150602060405190810160405280600081526020015060206040519081016040528060008152602001506020604051908101604052806000815260200150602060405190810160405280600081526020015060e0604051908101604052806020604051908101604052806000815260200150815260200160206040519081016040528060008152602001508152602001602060405190810160405280600081526020015081526020016020604051908101604052806000815260200150815260200160206040519081016040528060008152602001508152602001602060405190810160405280600081526020015081526020016020604051908101604052806000815260200150815260200150600060005089604051808280519060200190808383829060006004602084601f0104600302600f01f150905001915050908152602001604051809103902060005060e06040519081016040529081600082016000508054600181600116156101000203166002900480601f016020809104026020016040519081016040528092919081815260200182805460018160011615610100020316600290048015610e575780601f10610e2c57610100808354040283529160200191610e57565b820191906000526020600020905b815481529060010190602001808311610e3a57829003601f168201915b50505050508152602001600182016000508054600181600116156101000203166002900480601f016020809104026020016040519081016040528092919081815260200182805460018160011615610100020316600290048015610efc5780601f10610ed157610100808354040283529160200191610efc565b820191906000526020600020905b815481529060010190602001808311610edf57829003601f168201915b50505050508152602001600282016000508054600181600116156101000203166002900480601f016020809104026020016040519081016040528092919081815260200182805460018160011615610100020316600290048015610fa15780601f10610f7657610100808354040283529160200191610fa1565b820191906000526020600020905b815481529060010190602001808311610f8457829003601f168201915b50505050508152602001600382016000508054600181600116156101000203166002900480601f0160208091040260200160405190810160405280929190818152602001828054600181600116156101000203166002900480156110465780601f1061101b57610100808354040283529160200191611046565b820191906000526020600020905b81548152906001019060200180831161102957829003601f168201915b50505050508152602001600482016000508054600181600116156101000203166002900480601f0160208091040260200160405190810160405280929190818152602001828054600181600116156101000203166002900480156110eb5780601f106110c0576101008083540402835291602001916110eb565b820191906000526020600020905b8154815290600101906020018083116110ce57829003601f168201915b50505050508152602001600582016000508054600181600116156101000203166002900480601f0160208091040260200160405190810160405280929190818152602001828054600181600116156101000203166002900480156111905780601f1061116557610100808354040283529160200191611190565b820191906000526020600020905b81548152906001019060200180831161117357829003601f168201915b50505050508152602001600682016000508054600181600116156101000203166002900480601f0160208091040260200160405190810160405280929190818152602001828054600181600116156101000203166002900480156112355780601f1061120a57610100808354040283529160200191611235565b820191906000526020600020905b81548152906001019060200180831161121857829003601f168201915b505050505081526020015050905080600001518160400151826060015183608001518460c001518560a001518660200151869650859550849450839350829250819150809050975097509750975097509750975061128e565b50919395979092949650565b6000600160005082604051808280519060200190808383829060006004602084601f0104600302600f01f15090500191505090815260200160405180910390206000508054905090506112e8565b919050565b600160005081604051808280519060200190808383829060006004602084601f0104600302600f01f150905001915050908152602001604051809103902060005080548060010182818154818355818115116113de578183600052602060002091820191016113dd919061135c565b808211156113d957600060008201600050805460018160011615610100020316600290046000825580601f1061139257506113cf565b601f0160209004906000526020600020908101906113ce91906113b0565b808211156113ca57600081815060009055506001016113b0565b5090565b5b505060010161135c565b5090565b5b5050509190906000526020600020900160005b6020604051908101604052808681526020015090919091506000820151816000016000509080519060200190828054600181600116156101000203166002900490600052602060002090601f016020900481019282601f1061145e57805160ff191683800117855561148f565b8280016001018555821561148f579182015b8281111561148e578251826000505591602001919060010190611470565b5b5090506114ba919061149c565b808211156114b6576000818150600090555060010161149c565b5090565b50505050505b505056",
  "compiler": {
    "name": "solc",
    "version": "0.4.0+commit.acd334c9.Emscripten.clang"
  },
  "schemaVersion": "3.4.13",
  "updatedAt": "2023-04-02T20:28:27.016Z",
  "networkType": "ethereum"
}